:100000000C942A000C9447000C9447000C94470071
:100010000C9447000C9447000C9447000C94470044
:100020000C9447000C9449000C9447000C94470032
:100030000C9447000C9447000C9447000C94470024
:100040000C9447000C9447000C9447000C94470014
:100050000C94470011241FBECFE5D4E0DEBFCDBF16
:1000600010E0A0E6B0E0EAE1F4E002C005900D92F5
:10007000AE37B107D9F710E0AEE7B0E001C01D928E
:10008000AF37B107E1F70E942F010C940C020C94DA
:1000900000001F920F920FB60F9211248F93809140
:1000A0007E008F5F80937E008F910F900FBE0F9028
:1000B0001F901895CF93DF93CDB7DEB722970FB679
:1000C000F894DEBF0FBECDBF8A8382958F7089837F
:1000D000DC98898180FDDC9ADD98898181FDDD9A3B
:1000E000DE98898182FDDE9ADF98898183FDDF9A1F
:1000F000DA9ADA98DC988A8180FDDC9ADD988A8128
:1001000081FDDD9ADE988A8182FDDE9ADF988A8100
:1001100083FDDF9ADA9ADA9822960FB6F894DEBF5A
:100120000FBECDBFDF91CF9108958AB38F708ABB88
:100130008BB38F708BBBDA98D898D99ADA9A99B327
:10014000DA98DA9ADA988AB3806F8ABB97FDEDCF96
:1001500008951F93182F0E949500D89AD998812F3F
:100160000E945A001F9108951F93182F0E94950016
:10017000D898D998812F0E945A001F9108958AB368
:10018000806F8ABB8AB387608ABB0E949500D8982B
:10019000D9988BB38F728BBBDD9ADA9ADA9888E2A2
:1001A0000E94B4008CE00E94B40086E00E94B4007B
:1001B00081E00E94B4000895CF93DF93EC0102C068
:1001C000C456D040C436D105D8F720E030E001C095
:1001D0002A97822F2F5F3F4FCA30D105C8F7805D25
:1001E0000E94A9009E01205D822F0E94A900DF913C
:1001F000CF910895CF93DF93EC0124E096958795F6
:100200002A95E1F78A3010F0895C01C0805D0E9478
:10021000A9009E012F70822F2A3010F0895C01C046
:10022000805D0E94A900DF91CF9108950F931F93E5
:10023000CF93DF938C01C0E0D0E002C00E94A90000
:10024000F801EC0FFD1F8081882321F02196C13138
:10025000D105A1F7DF91CF911F910F910895CF9212
:10026000DF92EF92FF920F931F93CF93DF93BA9891
:10027000C298BE9ABF9AD09AD19AD29AD49AD59A55
:10028000D69AD79A83E083BF89B7816089BF789473
:100290000E94BF0081E00E94B40080E690E00E94CE
:1002A0001601A4E7CA2EA0E0DA2EF6E6EF2EF0E063
:1002B000FF2E04E610E0C2E6D0E0B29BFECF12BEF5
:1002C00010927E0040E050E060E070E004C0809159
:1002D0007E00813538F4B299FACF04C080917E0057
:1002E000813510F4B29BFACF80917E0022B790E066
:1002F000982F8827820F911D680F791F12BE809159
:100300007E00813538F410927E004F5F5F4F4031A0
:10031000510508F3C69AC79A80917E00813568F628
:100320009B0154E0369527955A95E1F7D601E0E018
:10033000F0E08D919C9111972817390728F031969C
:100340001296E530F105A9F7EE0FFF1FE859FF4FB0
:1003500040815181C90105974817590718F460E099
:1003600070E003C0C69861E070E0275F3F4F24173C
:10037000350718F06E5F7F4FC79840E050E031C0FE
:1003800000000196E1E080309E07D1F72F5F3F4FDC
:1003900081E02030380711F54F5F5F4F4C30510539
:1003A00001F5C69AC79A6130710529F481E00E946F
:1003B000B400CE0110C06230710529F481E00E94C2
:1003C000B400C80108C06330710509F076CF81E040
:1003D0000E94B400C7010E9416016FCF80E090E038
:1003E000CFCF20E030E0FACFEF92FF920F931F9330
:1003F0008C017B0181E00E94B400C8010E941601BB
:1004000080EC0E94B400C7010E9416011F910F9159
:0A041000FF90EF9008950895FFCFCC
:10041A0069006D006E0065007B01FA017D025303DD
:0E042A007004EC05B1013402D902CD031305B4
:00000001FF
